S01900005430335F4D746E4374726C4C6D705F424D2E737265631A
S11300000C9434000C943E000C943E000C943E007E
S11300100C943E000C943E000C943E000C943E0064
S11300200C943E000C943E000C943E000C943E0054
S11300300C943E000C943E000C943E000C943E0044
S11300400C943E000C943E000C943E000C943E0034
S11300500C943E000C943E000C943E000C943E0024
S11300600C943E000C943E0011241FBECFEFD8E048
S1130070DEBFCDBF0E948B000C9402020C940000E2
S113008014BC84E085BD16BC60E070E009C086B590
S1130090803458F016BC6F5F7F4F6C33710539F0B4
S11300A04A9905C086B58034A8F74A9BF0CF46B577
S11300B050E088279927841B950B8B38910598F479
S11300C04A9B14C086B590E09C01241B350B2B3849
S11300D0310520F44A99F6CF9C0101C09C012B38CC
S11300E0310538F40FC080E090E00CC080E090E06F
S11300F009C08FEF9FEF06C026B52034E8F316BC85
S11301006F5F7F4F6034710520F426B52034A0F36F
S1130110F6CF15BC0895229A539A25E32A95F1F750
S1130120000083E28093800089E080938100812C29
S11301306894AA24A2F8B12CC12CD12C912C08E8E3
S113014010E0EA2CFB2CCC2DDD2D5B9AF5E5FA951D
S1130150F1F700005B980E9440008F3F2FEF920759
S113016009F1C80FD91F81E0E81AF10871F7209747
S1130170C9F0D695C795D695C795CC31D10588F0E9
S11301806C2F6B5170E080E090E00E94090125E83B
S11301903BEE41E150E40E946D010E94D800862E9E
S11301A001C0892C882D90E0F80191838083C9CF08
S11301B00E944C0188F09F5798F0B92F9927B751A6
S11301C0B0F0E1F0660F771F881F991F1AF0BA95F7
S11301D0C9F714C0B13091F00E946601B1E00895EE
S11301E00C946601672F782F8827B85F39F0B93FE0
S11301F0CCF3869577956795B395D9F73EF49095AA
S11302008095709561957F4F8F4F9F4F0895E89427
S113021009C097FB3EF490958095709561957F4F4A
S11302208F4F9F4F9923A9F0F92F96E9BB279395F8
S1130230F695879577956795B795F111F8CFFAF408
S1130240BB0F11F460FF1BC06F5F7F4F8F4F9F4F39
S113025016C0882311F096E911C0772321F09EE897
S1130260872F762F05C0662371F096E8862F70E0FD
S113027060E02AF09A95660F771F881FDAF7880FD7
S11302809695879597F9089557FD9058440F551FF3
S113029059F05F3F71F04795880F97FB991F61F004
S11302A09F3F79F087950895121613061406551F7B
S11302B0F2CF4695F1DF08C0161617061806991FE7
S11302C0F1CF86957105610508940895E894BB27DC
S11302D066277727CB0197F908950E9480010C9433
S11302E0F1010E94E30138F00E94EA0120F0952315
S11302F011F00C94DA010C94E00111240C946701C0
S11303000E94440170F3959FC1F3950F50E0551F6F
S1130310629FF001729FBB27F00DB11D639FAA2756
S1130320F00DB11DAA1F649F6627B00DA11D661FA5
S1130330829F2227B00DA11D621F739FB00DA11DC6
S1130340621F839FA00D611D221F749F3327A00D80
S1130350611D231F849F600D211D822F762F6A2F1C
S113036011249F5750409AF0F1F088234AF0EE0F81
S1130370FF1FBB1F661F771F881F91505040A9F7AE
S11303809E3F510580F00C94DA010C9467015F3FA5
S1130390E4F3983ED4F3869577956795B795F795EA
S11303A0E7959F5FC1F7FE2B880F911D9695879562
S11303B097F9089597F99F6780E870E060E00895E1
S11303C09FEF80EC089500240A9416161706180669
S11303D00906089500240A94121613061406050645
S11303E00895092E0394000C11F4882352F0BB0FD6
S11303F040F4BF2B11F460FF04C06F5F7F4F8F4F39
S10B04009F4F0895F894FFCF0B
S9030000FC
